:060000000A128A110E280D
:10000800FE00030EF0000A08F1007F08F2000A1251
:100018008A1116280A128A111128F50183010A1279
:100028008A114C288B1C19281A2826288312031396
:1000380008140608031D212822281D28FE30FF0069
:100048007F088805FD30FF007F088B057208FF00D8
:1000580071088A00700E8300FE0E7E0E09000130C2
:10006800831603138600831203138601FE3083165A
:10007800031388008312031388018316031387016F
:100088008312031387019030FF007F088B04080058
:100098000A128A1133200A128A118312031387095C
:1000A8006230F4006530F300F30B5828F40B58283D
:0A00B8005D2851280A128A110E2853
:02400E003B3F36
:00000001FF
