:060000000A128A110E280D
:10000800FE00030EF0000A08F1007F08F2000A1251
:100018008A1140280A128A111128F60183010A124E
:100028008A1116280A128A1163200A128A11FF30CF
:100038008312031387000430F500CF30F400013039
:10004800F300F30B2528F40B2528F50B25282C287D
:100058008312031387010430F500CF30F400013018
:10006800F300F30B3528F40B3528F50B35283C281D
:100078001B280A128A110E28831203130C1C452808
:1000880046285A280130FF007F08F60719307606FF
:10009800031D4F28502852288809F60115308F0073
:1000A80063308E00FE30FF007F088C057208FF0069
:1000B80071088A00700E8300FE0E7E0E09008316FA
:1000C800031387018312031387018316031388011F
:1000D800831203138801C0308B00FE30FF007F08B5
:1000E8008C050130831603138C000130831203132F
:0C00F800900015308F0063308E0008006F
:02400E003B3F36
:00000001FF
