:060000000A128A11FA2F1A
:100EE60070088312031393008230F300DD30F200A2
:100EF600F20B7B2FF30B7B2F802F08000A128A112F
:100F06008F270A128A110A128A11A7270A128A1132
:100F1600862F0A128A1100288316031314139413BA
:100F260020308312031394001030831603138700B6
:100F36000730860083120313860183160313880184
:100F4600831203138801080083120313061CAC2FB7
:100F5600AD2FC02F0130F7070318F80A0030F80745
:100F66000230F6004530F500A930F400F40BB92F35
:100F7600F50BB92FF60BB92FC02F83120313861C5E
:100F8600C52FC62FD92F0130F7020030031CF803F6
:100F9600F8020230F6004530F500A930F400F40BF3
:100FA600D22FF50BD22FF60BD22FD92F8312031384
:100FB600061DDE2FDF2FF52F7808F1007708F000E9
:100FC6000A128A1173270A128A110230F600453076
:100FD600F500A930F400F40BEE2FF50BEE2FF60B0F
:100FE600EE2FF52F77088312031388000800F70108
:0A0FF600F80183010A128A11812F0D
:02400E003B3F36
:00000001FF
