:060000000A128A11DE2F36
:100BB200413442344334443445340A128A111126F2
:100BC2000A128A1183160313911408000A128A1159
:100BD20011260A128A1183160313111408000A122D
:100BE2008A1111260A128A1183160313111508009D
:100BF2008316031391120A128A1111260A128A11FC
:100C020083160313111608008316031391160A1292
:100C12008A1111260A128A1183160313111608006B
:100C2200831603131419162E172E112E11081F39AD
:100C3200031D1C2E1D2E112E0800F0000A128A110F
:100C420011260A128A1170088312031393008C1D55
:100C52002B2E2C2E282E8C11003083160313111BE1
:100C6200013008000A128A1111260A128A1183160B
:100C72000313911583128C1D3F2E402E3B2E8C1197
:100C82000A128A1111260A128A11831203131308F7
:100C92000800283083120313940083160313910172
:100CA200831203132008A4002108A5002208A6002D
:100CB2002308A70002300310A40DA50DA60DA70D51
:100CC200FF3E031D5C2E2708F3002608F2002508CC
:100CD200F1002408F0000030F7005B30F6008D30A0
:100CE200F5008030F4000A128A1178270A128A115C
:100CF2007008FF3E831603139300940187150716AD
:100D020008000A128A11E7250A128A118D2E0A1288
:100D12008A11DE250A128A11A0300A128A111E26B1
:100D22000A128A11003A031D972E982E882E7208F5
:100D32000A128A111E260A128A1171080A128A11CF
:100D42001E260A128A11F701F801B92E77087307D5
:100D5200F50075088400831300080A128A111E2602
:100D62000A128A110130F7070318F80A0030F8074F
:100D72007408F500F60176087802031DC22E750884
:100D82007702031CC52EC62EA72E0A128A11F02541
:100D92000A128A110800003083120313A3000130E3
:100DA200A2008630A100A030A0000A128A114A26B1
:100DB2000A128A112A30840083120313340883131F
:100DC2008000840A35088000840A36088000840A7C
:100DD20037088000840A380880002030F100003093
:100DE200F2002A30F3000530F4000A128A1182263A
:100DF2000A128A11C33083120313A900CC30A8004F
:100E0200A80B012FA90B012F0000831603138801E1
:100E12002030F1000030F2002F30F3000530F400F2
:100E22000030F5000A128A111C270A128A11182FA3
:100E32000A128A1100280A128A11E7250A128A1157
:100E4200272F0A128A11DE250A128A11A0300A12ED
:100E52008A111E260A128A11003A031D312F322FDF
:100E6200222F72080A128A111E260A128A1171088A
:100E72000A128A111E260A128A110A128A11DE2504
:100E82000A128A11A1300A128A111E260A128A1126
:100E9200F701F801632F77087307F60076088400DC
:100EA2000A128A1133260A128A11831380000A1247
:100EB2008A11F9250A128A110130F7070318F80A74
:100EC2000030F80775087802031D692F740877024D
:100ED200031C6C2F6D2F4C2F0A128A1105260A1241
:100EE2008A110A128A11F0250A128A1108000030AA
:100EF200FC000030FB000030FA000030F9007308FB
:100F02007204710470040319872F882FD52FFD01F5
:100F1200FD0A982F0130F8000310F00DF10DF20DCB
:100F2200F30DF80B8D2F0130FF007F08FD07F31F33
:100F32009B2F9C2F8B2F0130F8000310F90DFA0D17
:100F4200FB0DFC0DF80B9E2F73087702031DB32FC8
:100F520072087602031DB32F71087502031DB32FA9
:100F620070087402031CB62FB72FC62F7008F40244
:100F72007108031C710FF5027208031C720FF6024E
:100F82007308031C730FF702791401300310F30C7A
:100F9200F20CF10CF00CFF3E031DC72F0130FD02D5
:100FA200031DD42FD52F9C2F7C08F3007B08F20061
:100FB2007A08F1007908F00008000A128A11D9258E
:100FC2000A128A11B4000A128A11DA250A128A1147
:100FD200B5000A128A11DB250A128A11B6000A121A
:100FE2008A11DC250A128A11B7000A128A11DD253C
:0E0FF2000A128A11B80083010A128A11CC2E4D
:02400E003B3F36
:00000001FF
