:060000000A128A11EC2F28
:100CB8007E088A007F0882000A128A115C260A12BE
:100CC8008A118000840A04087D0603190034FF0A8B
:100CD8000319FE0A602E5434583420344434413405
:100CE800543441343D3400340034523458342034C0
:100CF80044344134543441343D3400340034F20037
:100D08008312031386157208880006156230F100F5
:100D18006530F000F00B8E2EF10B8E2E932EFB30EB
:100D2800FF007F088312031386050800F200F730DE
:100D3800FF007F08831203138605720888000615D2
:100D48006230F1006530F000F00BA82EF10BA82EF0
:100D5800AD2EFB30FF007F088312031386050800C1
:100D68008316031388018601C030870090308312F0
:100D78000313980020308316031398000930990054
:100D880030300A128A119A260A128A11C330F400E6
:100D9800CD30F300F30BCE2EF40BCE2E30300A12EA
:100DA8008A119A260A128A11C330F400CD30F30052
:100DB800F30BDC2EF40BDC2E30300A128A119A2643
:100DC8000A128A11C330F400CD30F300F30BEA2E77
:100DD800F40BEA2E38300A128A119A260A128A115E
:100DE8000C300A128A119A260A128A1101300A1244
:100DF8008A119A260A128A11C330F400CD30F30002
:100E0800F30B042FF40B042F08000A128A11B426DE
:100E18000A128A1180300A128A119A260A128A1135
:100E2800F80178082A3E8400831300080A128A1100
:100E380083260A128A110130FF007F08F80708305C
:100E48007806031D282F292F152FC0300A128A1162
:100E58009A260A128A11F8017808203E8400831322
:100E680000080A128A1183260A128A110130FF002B
:100E78007F08F80708307806031D432F442F302FCA
:100E8800831203138C1E492F4A2FDF2F1A08F700ED
:100E9800C92F88300A128A119A260A128A117708ED
:100EA8000A128A1183260A128A117708203E8312B1
:100EB80003139900C8300A128A119A260A128A1155
:100EC8007708203E0A128A1183260A128A11DF2F18
:100ED80088300A128A119A260A128A1177080A1289
:100EE8008A1183260A128A117708203E8312031377
:100EF8009900C8300A128A119A260A128A117708AC
:100F0800203E0A128A1183260A128A11DF2F88309E
:100F18000A128A119A260A128A1177080A128A1165
:100F280083260A128A117708203E83120313990038
:100F3800C8300A128A119A260A128A117708203EA6
:100F48000A128A1183260A128A11DF2F88300A12A0
:100F58008A119A260A128A1177080A128A11832698
:100F68000A128A117708203E831203139900C830A9
:100F78000A128A119A260A128A117708203E0A1242
:100F88008A1183260A128A11DF2F7708F500F601E5
:100F98007608003A0319D12FDF2F7508413A031953
:100FA8004D2F033A03196C2F013A03198B2F073A77
:100FB8000319AA2FDF2F1430F6007930F500F50B4E
:100FC800E32FF60BE32FE82F442F0A128A1100288B
:100FD80083133430FD000630FE006F30FF002030F0
:100FE80084000A128A1160260A128A11F701F80190
:080FF80083010A128A11092F7E
:02400E003B3F36
:00000001FF
