:060000000A128A11D92F3B
:10073A0064008001840A04060319003404069E2B0F
:10074A004F345234473420344434413454344134DD
:10075A003A340034433441344C34493442343A3420
:10076A0000340034003400340130F0020030031C3D
:10077A00F103F10270087104031DC42BC52BB92BB8
:10078A0008007E088A007F0882000A128A11C6239E
:10079A000A128A118000840A04087D0603190034AB
:1007AA00FF0A0319FE0ACA2BF900F801791CDE2B8D
:1007BA00DF2BE32B7708FF007F08F8070310F70DFC
:1007CA000310F90C7908031DEB2BEC2BDB2B7808B3
:1007DA000800F200831203138715720888000714B1
:1007EA00FE30FF007F0887056430F0000030F1001A
:1007FA000A128A11B9230A128A110800F200F73084
:10080A00FF007F0883120313870572088800071404
:10081A00FE30FF007F0887056430F0000030F100E9
:10082A000A128A11B9230A128A110800043083169F
:10083A0003138500870188019130831203139F00F7
:10084A008230831603139F0030300A128A11032460
:10085A000A128A116430F0000030F1000A128A117B
:10086A00B9230A128A1130300A128A1103240A1291
:10087A008A116430F0000030F1000A128A11B9239B
:10088A000A128A1130300A128A1103240A128A11B2
:10089A0038300A128A1103240A128A110C300A12F9
:1008AA008A1103240A128A110800F401F50170085A
:1008BA0071040319612C622C992CF601F60A702C2A
:1008CA0001300310F00DF10DFF3E031D662C0130BF
:1008DA00FF007F08F607F11F732C742C652C01307A
:1008EA000310F40DF50DFF3E031D752C71087302FC
:1008FA00031D812C70087202031C842C852C8C2CFD
:10090A007008F2027108031CF303F3027414013035
:10091A000310F10CF00CFF3E031D8D2C0130F60282
:10092A00031D982C992C742C7508F1007408F0009A
:10093A0008000030FC000030FB000030FA000030F4
:10094A00F900701CA92CAA2CC12C7408F907750887
:10095A0003110318013E0319B32CFA077608031191
:10096A000318013E0319BA2CFB0777080311031871
:10097A00013E0319C12CFC070130F8000310F40DE5
:10098A00F50DF60DF70DF80BC32C01300310F30C1F
:10099A00F20CF10CF00CFF3E031DCB2C7308720411
:1009AA0071047004031DDA2CDB2CA62C7C08F300DE
:1009BA007B08F2007A08F1007908F0000800730851
:1009CA007204710470040319EB2CEC2C2F2DF9011D
:1009DA00F90AFC2C0130F8000310F00DF10DF20DAC
:1009EA00F30DF80BF12C0130FF007F08F907F31F14
:1009FA00FF2C002DEF2C73087702031D0E2D7208B1
:100A0A007602031D0E2D71087502031D0E2D700846
:100A1A007402031C112D122D202D7008F402710886
:100A2A00031C710FF5027208031C720FF602730899
:100A3A00031C730FF70201300310F30CF20CF10CD4
:100A4A00F00CFF3E031D212D0130F902031D2E2D4E
:100A5A002F2D002D7708F3007608F2007508F100B3
:100A6A007408F0000800003083120313D700003026
:100A7A00D6000030D5000030D4004F084E044D0493
:100A8A004C040319492D4A2D972DD801D80A5A2DFD
:100A9A000130FD000310CC0DCD0DCE0DCF0DFD0B99
:100AAA004F2D0130FF007F08D807CF1F5D2D5E2D27
:100ABA004D2D0130FD000310D40DD50DD60DD70DE7
:100ACA00FD0B602D4F085302031D752D4E0852026F
:100ADA00031D752D4D085102031D752D4C0850023A
:100AEA00031C782D792D882D4C08D0024D08031C43
:100AFA004D0FD1024E08031C4E0FD2024F08031CA1
:100B0A004F0FD302541401300310CF0CCE0CCD0C6E
:100B1A00CC0CFF3E031D892D0130D802031D962DF2
:100B2A00972D5E2D5708CF005608CE005508CD00E8
:100B3A005408CC00080083120313CA01CA0A7B08AE
:100B4A00C5007A08C400DF2DF630F7004508F30027
:100B5A004408F2000A30F0000030F1000A128A114B
:100B6A005A240A128A1170080A128A11D9230A12FF
:100B7A008A11831203134407FC004A08203E8400AA
:100B8A007C08831380000130FF007F08CA070A30FF
:100B9A00F0000030F1004508F3004408F2000A12A0
:100BAA008A115A240A128A11710883120313C50082
:100BBA007008C40044084504031DE42DE52DA92D41
:100BCA004A08203E8400831380010130CA022208A9
:100BDA000319F02DF12DFB2D2208303ECB004B08D6
:100BEA000A128A11EE230A128A11012E20300A12E1
:100BFA008A11EE230A128A11831203132108303E46
:100C0A00CB004B080A128A11EE230A128A115630B7
:100C1A0083120313CB0056300A128A11EE230A12EA
:100C2A008A1108000030F3000030F2000030F100B1
:100C3A000A30F000831203135C08F7005B08F60021
:100C4A005A08F5005908F4000A128A11E4240A1213
:100C5A008A11700883120313B5000030CF000030E8
:100C6A00CE000030CD000A30CC005C08D3005B080F
:100C7A00D2005A08D1005908D0000A128A11382520
:100C8A000A128A11831203134F08DC004E08DB0094
:100C9A004D08DA004C08D9000030F3000030F200A9
:100CAA000030F1000A30F0005C08F7005B08F6003B
:100CBA005A08F5005908F4000A128A11E4240A12A3
:100CCA008A11700883120313B4000030CF00003079
:100CDA00CE000030CD000A30CC005C08D3005B089F
:100CEA00D2005A08D1005908D0000A128A113825B0
:100CFA000A128A11831203134F08DC004E08DB0024
:100D0A004D08DA004C08D9000030F3000030F20038
:100D1A000030F1000A30F0005C08F7005B08F600CA
:100D2A005A08F5005908F4000A128A11E4240A1232
:100D3A008A11700883120313B3000030CF00003009
:100D4A00CE000030CD000A30CC005C08D3005B082E
:100D5A00D2005A08D1005908D0000A128A1138253F
:100D6A000A128A11831203134F08DC004E08DB00B3
:100D7A004D08DA004C08D9005908B20008000A12D6
:100D8A008A111B240A128A11831203131F151F19B1
:100D9A00CF2ED02ECC2E831603131E0883120313D4
:100DAA00DD00DE015D08C8005E08C9001E08DD001E
:100DBA00DE015D08C6005E08C7004808DD00490874
:100DCA00DE00DF01E0014608E1004708E200E30136
:100DDA00E40108300310E10DE20DE30DE40DFF3EDE
:100DEA00031DEF2E6108DD0762080318620FFE2E4D
:100DFA00FF2EDE0763080318630F042F052FDF0792
:100E0A0064080318640AE0076008B1005F08B000CC
:100E1A005E08AF005D08AE0080300A128A11032412
:100E2A000A128A1183120313C001C1014008A03EAD
:100E3A008400831300080A128A11EE230A128A1107
:100E4A00013083120313C0070318C10A0030C10717
:100E5A00093040064104031D332F342F1B2F31085C
:100E6A00DC003008DB002F08DA002E08D9000A124D
:100E7A008A1117260A128A1183120313C001C101AB
:100E8A004008323E840083130008303E0A128A1159
:100E9A00EE230A128A11013083120313C0070318C2
:100EAA00C10A0030C107043040064104031D5E2F09
:100EBA005F2F452FE830F0000330F1000A128A1143
:100ECA00B9230A128A11003083120313CF000030AB
:100EDA00CE000330CD00FF30CC003108F3003008DB
:100EEA00F2002F08F1002E08F0000030F700003061
:100EFA00F6000030F5006430F4000A128A119E24CC
:100F0A000A128A11730883120313D3007208D200DB
:100F1A007108D1007008D0000A128A1138250A1205
:100F2A008A11831203134F08AD004E08AC004D0816
:100F3A00AB004C08AA00C0300A128A1103240A1214
:100F4A008A1183120313C001C1014008653E84005F
:100F5A00831300080A128A11EE230A128A11013039
:100F6A0083120313C0070318C10A0030C1070630F1
:100F7A0040064104031DC22FC32FAA2F2B08FB00D2
:100F8A002A08FA000A128A11A0250A128A11E830E0
:100F9A00F0000330F1000A128A11B9230A128A11E9
:100FAA00C92E0A128A1100288313AA30FD000330C1
:100FBA00FE00A530FF00A03084000A128A11CA235D
:100FCA000A128A116F30FD000330FE00AF30FF00B5
:100FDA00653084000A128A11CA230A128A11203043
:100FEA0084004C300A128A119D230A128A11830145
:060FFA000A128A11C42E48
:02400E003B3F36
:00000001FF
