:060000000A128A11FC2F18
:100F22000A128A119F270A128A110A128A11BC27F1
:100F32000A128A11962F0A128A110028FB30831690
:100F4200031387003C308312031397002E30950061
:100F5200063092002E308316031392002030F500E3
:100F62000930F4001030F3001C30F2001030F100B0
:100F72002A30F00008007408831203139500170842
:100F8200CF39750497001730F800D530F7001630C6
:100F9200F600F60BCA2FF70BCA2FF80BCA2F000068
:100FA20072088312031395001708CF397304970050
:100FB2001730F800D530F7001630F600F60BDF2FA9
:100FC200F70BDF2FF80BDF2F0000700883120313DB
:100FD20095001708CF39710497001730F800D53003
:100FE200F7001630F600F60BF42FF70BF42FF80B80
:0E0FF200F42F0000080083010A128A11912FCB
:02400E003B3F36
:00000001FF
