:060000000A128A11C02F54
:100EA4008134003407340034873400348634003409
:100EB40006340034F0308316031386007F30FF00BD
:100EC4007F088105831203138601831603138701A8
:100ED40083120313870108007E088A007F088200BA
:100EE4000A128A116E270A128A118000840A0408E1
:100EF4007D0603190034FF0A0319FE0A722F0A1231
:100F04008A115C270A128A11831203130608FC0053
:100F1400FD017C08FA007D08FB000A128A1198275B
:100F24000A128A11862F0A128A110028AC2F043063
:100F3400831203138700BF2F023083120313870029
:100F4400BF2F831203138701BF2F063083120313AD
:100F54008700BF2F7B08003A0319B12FBF2F7A08EF
:100F6400703A0319A72FC03A0319A32F603A031943
:100F74009E2F303A0319992FBF2F08000A128A11A5
:100F840052270A128A11F0000A128A1153270A12F0
:100F94008A11F1000A128A1154270A128A11F200E6
:100FA4000A128A1155270A128A11F3000A128A11A9
:100FB40056270A128A11F4000A128A1157270A12B4
:100FC4008A11F5000A128A1158270A128A11F600AA
:100FD4000A128A1159270A128A11F7000A128A1171
:100FE4005A270A128A11F8000A128A115B270A1278
:0C0FF4008A11F90083010A128A11812F72
:02400E003B3F36
:00000001FF
