:060000000A128A11E62F2E
:10014E0064008001840A0406031900340406A828FA
:10015E000A128A11CC200A128A1183160313111463
:10016E0008000A128A11CC200A128A118316031370
:10017E0011150800F0000A128A11CC200A128A11F9
:10018E0070088312031393000800831603131108DB
:10019E001F39031DD328D428CC281419D728D828C2
:1001AE00CC2808007E088A007F0882000A128A1175
:1001BE00D9200A128A118000840A04087D060319C8
:1001CE000034FF0A0319FE0ADD2844344134543446
:1001DE0045343A34543449344D3445343A34023487
:1001EE0000341834003404340034083400340B3432
:1001FE0000343B3400343734003450344D34413401
:10020E004D34F20083120313071572088800871409
:10021E000A30F100BC30F000F00B1329F10B13295A
:10022E000000FD30FF007F088312031387050A309C
:10023E00F100BC30F000F00B2229F10B2229000056
:10024E0008000A128A1114220A128A11003083122F
:10025E000313E2000030E1000030E0006430DF0004
:10026E000A128A1199220A128A110A128A1110246C
:10027E000A128A110A128A118F250A128A1141292D
:10028E000A128A110028F200FB30FF007F08831249
:10029E00031387057208880087140A30F100BC30FA
:1002AE00F000F00B5829F10B58290000FD30FF002B
:1002BE007F088312031387050A30F100BC30F0006B
:1002CE00F00B6729F10B672900000800F401F50116
:1002DE00701C7229732979297208F4070318F50A1C
:1002EE007308F50701300310F20DF30DFF3E031DE9
:1002FE007A2901300310F10CF00CFF3E031D812909
:10030E0070087104031D8C298D296F297508F10061
:10031E007408F00008000F307605F80000307705FD
:10032E00F900760E0F39F000770EF039F004770EE3
:10033E000F39F100F030F11D0030F1040A30F200F7
:10034E000030F3000A128A116D210A128A11780800
:10035E007007F60079080318790A7107F70008008C
:10036E000A128A11CC200A128A11831603139115D0
:10037E000A128A11CC200A128A118312031313084F
:10038E00F200F3017208F4007308F5000A128A11E4
:10039E00CC200A128A11700871040319D729DB299F
:1003AE00831603139116DE29831603139112111669
:1003BE007508F1007408F00008000A30F0000030F3
:1003CE00F1007908F3007808F2000A128A1141232D
:1003DE000A128A117008FA007108FB00FA0EFB0E61
:1003EE00F030FB057A080F39FB04F030FA050A30BD
:1003FE00F0000030F1007908F3007808F2000A12DC
:10040E008A11E8220A128A1170087A07F800710818
:10041E000318710A7B07F90008008316031388017D
:10042E001830870083120313880130300A128A11A4
:10043E004A210A128A110A30F400BC30F300F30B81
:10044E00262AF40B262A000030300A128A114A217D
:10045E000A128A110A30F400BC30F300F30B352A6D
:10046E00F40B352A000030300A128A114A210A1282
:10047E008A1138300A128A114A210A128A110C3056
:10048E000A128A114A210A128A1101300A128A119D
:10049E004A210A128A1108000030FC000030FB00CD
:1004AE000030FA000030F900701C5E2A5F2A762AAE
:1004BE007408F907750803110318013E0319682A19
:1004CE00FA07760803110318013E03196F2AFB077A
:1004DE00770803110318013E0319762AFC07013031
:1004EE00F8000310F40DF50DF60DF70DF80B782A44
:1004FE0001300310F30CF20CF10CF00CFF3E031D57
:10050E00802A7308720471047004031D8F2A902AC6
:10051E005B2A7C08F3007B08F2007A08F100790868
:10052E00F00008002830831203139400831603137F
:10053E0094019101831203135F08E3006008E40045
:10054E006108E5006208E60002300310E30DE40DD9
:10055E00E50DE60DFF3E031DAC2A6608F3006508A7
:10056E00F2006408F1006308F0000030F70000307C
:10057E00F6000030F5006430F4000A128A1153229E
:10058E000A128A11730883120313D5007208D4005D
:10059E007108D3007008D2000030D9005B30D8004B
:1005AE008D30D7008030D6000A128A11A8230A1285
:1005BE008A11831203135208FF3E8316031393000E
:1005CE000800F501F31FEC2AED2AF42AF209F309CB
:1005DE00F20A0319F30AF501F50AF11FF72AF82AB0
:1005EE00FD2AF009F109F00A0319F10A70087104E5
:1005FE000319022B032B322BF401F40A112B0130B9
:10060E000310F00DF10DFF3E031D072B0130FF000F
:10061E007F08F407F11F142B152B062B710873029C
:10062E00031D1B2B70087202031C1E2B1F2B252B68
:10063E007008F2027108031CF303F3020130031079
:10064E00F10CF00CFF3E031D262B0130F402031DAE
:10065E00312B322B152B75080319362B372B3C2BD0
:10066E00F209F309F20A0319F30A7308F10072088A
:10067E00F0000800F501F11F452B462B4D2BF0091C
:10068E00F109F00A0319F10AF501F50AF31F502BCF
:10069E00512B5A2BF209F309F20A0319F30A01300E
:1006AE00FF007F08F506F601F701700871040319C3
:1006BE00612B622B992BF401F40A702B013003107D
:1006CE00F00DF10DFF3E031D662B0130FF007F087C
:1006DE00F407F11F732B742B652B01300310F60DED
:1006EE00F70DFF3E031D752B71087302031D812B41
:1006FE0070087202031C842B852B8C2B7008F2025F
:10070E007108031CF303F302761401300310F10C8D
:10071E00F00CFF3E031D8D2B0130F402031D982BB0
:10072E00992B742B750803199D2B9E2BA32BF60961
:10073E00F709F60A0319F70A7708F1007608F000B0
:10074E000800003083120313DD000030DC0000309F
:10075E00DB000030DA005508540453045204031928
:10076E00B92BBA2B072CDE01DE0ACA2B0130FD0095
:10077E000310D20DD30DD40DD50DFD0BBF2B0130B3
:10078E00FF007F08DE07D51FCD2BCE2BBD2B0130F2
:10079E00FD000310DA0DDB0DDC0DDD0DFD0BD02B96
:1007AE0055085902031DE52B54085802031DE52B6D
:1007BE0053085702031DE52B52085602031CE82B63
:1007CE00E92BF82B5208D6025308031C530FD702FD
:1007DE005408031C540FD8025508031C550FD90298
:1007EE005A1401300310D50CD40CD30CD20CFF3E8E
:1007FE00031DF92B0130DE02031D062C072CCE2B18
:10080E005D08D5005C08D4005B08D3005A08D200FE
:10081E0008000A128A11AF200A128A11D0300A1269
:10082E008A11C1200A128A1100300A128A11C120BF
:10083E000A128A11831203133708F9003608F800DA
:10084E000A128A11E4210A128A1178080A128A11F0
:10085E00C1200A128A11831203133508F9003408D5
:10086E00F8000A128A11E4210A128A1178080A1273
:10087E008A11C1200A128A11831203133308F90058
:10088E003208F8000A128A11E4210A128A11780835
:10089E0060380A128A11C1200A128A1183120313B8
:1008AE002B08F9002A08F8000A128A11E4210A120C
:1008BE008A1178080A128A11C1200A128A1183122B
:1008CE0003133108F9003008F8000A128A11E421E6
:1008DE000A128A1178080A128A11C1200A128A1184
:1008EE00831203132F08F9002E08F8000A128A113A
:1008FE00E4210A128A1178080A128A11C1200A12FA
:10090E008A11831203132D08F9002C08F8000A121D
:10091E008A11E4210A128A1178080A128A11C1205A
:10092E000A128A110A128A11B8200A128A110800B4
:10093E000A128A11AF200A128A11D0300A128A11B5
:10094E00C1200A128A1100300A128A11C1200A121D
:10095E008A110A128A11B8200A128A110A128A11F1
:10096E00AF200A128A11D1300A128A11C1200A123E
:10097E008A110130F0000030F1000A128A11B721FD
:10098E000A128A117108F7007008F6000A128A110D
:10099E0092210A128A11770883120313B700760880
:1009AE00B6000130F0000030F1000A128A11B721B2
:1009BE000A128A117108F7007008F6000A128A11DD
:1009CE0092210A128A11770883120313B500760852
:1009DE00B4000130F0000030F1000A128A11B72184
:1009EE000A128A11710883120313BD007008BC002D
:1009FE001F303C05F60000303D05F7000A128A1143
:100A0E0092210A128A11770883120313B300760813
:100A1E00B2000130F0000030F1000A128A11B72145
:100A2E000A128A117108F7007008F6000A128A116C
:100A3E0092210A128A11770883120313AB007608EB
:100A4E00AA000130F0000030F1000A128A11B7211D
:100A5E000A128A117108F7007008F6000A128A113C
:100A6E0092210A128A11770883120313B1007608B5
:100A7E00B0000130F0000030F1000A128A11B721E7
:100A8E000A128A117108F7007008F6000A128A110C
:100A9E0092210A128A11770883120313AF00760887
:100AAE00AE000130F0000030F1000A128A11B721B9
:100ABE000A128A117108F7007008F6000A128A11DC
:100ACE0092210A128A11770883120313AD00760859
:100ADE00AC000A128A11B8200A128A110A128A115F
:100AEE00AF200A128A11D1300A128A11C1200A12BD
:100AFE008A110130F0000030F1000A128A11B7217C
:100B0E000A128A110A128A11B8200A128A110800D2
:100B1E000A128A119F240A128A110A30F00000303C
:100B2E00F100831203133708F3003608F2000A129D
:100B3E008A1141230A128A11700883120313D100FD
:100B4E000A30F0000030F1003708F3003608F200EA
:100B5E000A128A11E8220A128A11700883120313EC
:100B6E00D0000A30F0000030F1003508F3003408F0
:100B7E00F2000A128A1141230A128A117008831296
:100B8E000313CF000A30F0000030F1003508F300F7
:100B9E003408F2000A128A11E8220A128A11700829
:100BAE0083120313CE000A30F0000030F100330838
:100BBE00F3003208F2000A128A1141230A128A1136
:100BCE00700883120313CD000A30F0000030F100DC
:100BDE003308F3003208F2000A128A11E8220A12D0
:100BEE008A11700883120313CC000A30F000003013
:100BFE00F1003108F3003008F2000A128A11412385
:100C0E000A128A11700883120313CB000A30F00007
:100C1E000030F1003108F3003008F2000A128A1198
:100C2E00E8220A128A11700883120313CA000A30CE
:100C3E00F0000030F1002F08F3002E08F2000A1227
:100C4E008A1141230A128A11700883120313C900F4
:100C5E000A30F0000030F1002F08F3002E08F200E9
:100C6E000A128A11E8220A128A11700883120313DB
:100C7E00C8000A30F0000030F1002D08F3002C08F7
:100C8E00F2000A128A1141230A128A117008831285
:100C9E000313C7000A30F0000030F1002D08F300F6
:100CAE002C08F2000A128A11E8220A128A11700820
:100CBE0083120313C60080300A128A114A210A12C7
:100CCE008A1183120313C401C5018312031344084E
:100CDE00253E8400831300080A128A1108210A1285
:100CEE008A11013083120313C4070318C50A00309A
:100CFE00C5074508803AFF0080307F02031D892E0C
:100D0E0005304402031C8C2E8D2E6C2E8312031381
:100D1E004D08303E0A128A1108210A128A118312D6
:100D2E0003134C08303E0A128A1108210A128A1146
:100D3E002D300A128A1108210A128A118312031306
:100D4E004F08303E0A128A1108210A128A118312A4
:100D5E0003134E08303E0A128A1108210A128A1114
:100D6E002D300A128A1108210A128A1183120313D6
:100D7E005108303E0A128A1108210A128A11831272
:100D8E0003135008303E0A128A1108210A128A11E2
:100D9E0020300A128A1108210A128A1183120313B3
:100DAE00BC1EDA2EDB2EFF2EC401C50183120313E7
:100DBE004408383E8400831300080A128A11082161
:100DCE000A128A11013083120313C4070318C50ACD
:100DDE000030C5074508803AFF0080307F02031DB2
:100DEE00FA2E02304402031CFD2EFE2EDD2E222F83
:100DFE00C401C5018312031344083A3E84008313D1
:100E0E0000080A128A1108210A128A11013083126F
:100E1E000313C4070318C50A0030C5074508803AF6
:100E2E00FF0080307F02031D1E2F02304402031C80
:100E3E00212F222F012FC0300A128A114A210A12A5
:100E4E008A1183120313C401C501831203134408CC
:100E5E00203E8400831300080A128A1108210A1208
:100E6E008A11013083120313C4070318C50A003018
:100E7E00C5074508803AFF0080307F02031D492FC9
:100E8E0005304402031C4C2F4D2F2C2F83120313BD
:100E9E004B08303E0A128A1108210A128A11831257
:100EAE0003134A08303E0A128A1108210A128A11C7
:100EBE002D300A128A1108210A128A118312031385
:100ECE004908303E0A128A1108210A128A11831229
:100EDE0003134808303E0A128A1108210A128A1199
:100EEE002D300A128A1108210A128A118312031355
:100EFE004708303E0A128A1108210A128A118312FB
:100F0E0003134608303E0A128A1108210A128A116A
:100F1E0020300A128A1108210A128A11C72F533063
:100F2E000A128A1108210A128A11E52F4D300A126F
:100F3E008A1108210A128A11E52F54300A128A11D9
:100F4E0008210A128A11E52F57300A128A11082138
:100F5E000A128A11E52F54300A128A1108210A1238
:100F6E008A11E52F46300A128A1108210A128A11B7
:100F7E00E52F53300A128A1108210A128A11E52F21
:100F8E00831203132B08003A0319CE2FE52F2A08DC
:100F9E00013A0319962F033A03199D2F013A0319AB
:100FAE00A42F073A0319AB2F013A0319B22F033AB4
:100FBE000319B92F013A0319C02FE52F0800831327
:100FCE003C30FD000030FE00EC30FF00203084008D
:100FDE000A128A11DD200A128A113C308400523026
:100FEE000A128A11A7200A128A1183010A128A1183
:020FFE002829A0
:02400E003B3F36
:00000001FF
