:060000000A128A11EB2F29
:100DC0007E088A007F0882000A128A11E0260A1231
:100DD0008A118000840A04087D0603190034FF0A82
:100DE0000319FE0AE42EF20083120313871172081E
:100DF000880007141430F1007930F000F00BFE2E5B
:100E0000F10BFE2E032F8312031307101430F10091
:100E10007930F000F00B0A2FF10B0A2F0F2F08008A
:100E2000F200831203138715720888000714143028
:100E3000F1007930F000F00B1B2FF10B1B2F202F4E
:100E40008312031307101430F1007930F000F00B17
:100E5000272FF10B272F2C2F08004D344134473416
:100E60004534533448340034003400340034003402
:100E70000034003400340034003400340034CD3405
:100E8000CC34CB34CA34C934C83482348334843447
:100E90008534863487348316031387018801303004
:100EA0000A128A11F3260A128A11C330F400CD30D7
:100EB000F300F30B592FF40B592F30300A128A111B
:100EC000F3260A128A11C330F400CD30F300F30B7D
:100ED000672FF40B672F30300A128A11F3260A129B
:100EE0008A1138300A128A11F3260A128A110C303C
:100EF0000A128A11F3260A128A1108000A128A11AC
:100F00004B270A128A11F9017908383E84008313AD
:100F100000080A128A11F3260A128A11C330F60059
:100F2000CD30F500F50B922FF60B922F7908203E6D
:100F30008400831300080A128A1110270A128A11EA
:100F4000C330F600CD30F500F50BA42FF60BA42F1F
:100F50000130FF007F08F90706307902031CB12F2A
:100F6000B22F842FF7017708323E840083130008E4
:100F70000A128A11F3260A128A11C330F600CD3004
:100F8000F500F50BC12FF60BC12F7708203E84002A
:100F9000831300080A128A1110270A128A11C3301B
:100FA000F600CD30F500F50BD32FF60BD32F013023
:100FB000FF007F08F70706307702031CE02FE12FC0
:100FC000B32F1F300A128A11F3260A128A11E12F59
:100FD0000A128A11002883133E30FD000730FE00FC
:100FE0002D30FF00203084000A128A11E4260A12F4
:100FF0008A11F701F801F90183010A128A117E2F83
:02400E003B3F36
:00000001FF
