:020000040000FA
:100000000C945D000C9485000C9485000C94850084
:100010000C9485000C9485000C9485000C9485004C
:100020000C9485000C9485000C9485000C9485003C
:100030000C9485000C9485000C9485000C9485002C
:100040000C945B030C9485000C94CB030C94A503D7
:100050000C9485000C9485000C9485000C9485000C
:100060000C9485000C94850000000008000201003B
:100070000003040700000000000000000000000072
:10008000250028002B0000000000240027002A0083
:10009000040404040404040402020202020203032E
:1000A0000303030301020408102040800102040836
:1000B0001020010204081020FD0311241FBECFEF01
:1000C000D8E0DEBFCDBF11E0A0E0B1E0EEE2FBE0A2
:1000D00002C005900D92AC33B107D9F721E0ACE333
:1000E000B1E001C01D92AA3FB207E1F710E0CDE5F3
:1000F000D0E004C02197FE010E948F05CC35D107C6
:10010000C9F70E9447040C9495050C94000090E0F8
:10011000FC01EC55FF4F249180579F4FFC018491C7
:10012000882399F090E0880F991FFC01EA57FF4F50
:10013000A591B491FC01E458FF4F859194918FB73C
:10014000F894EC91E22BEC938FBF089590E0FC01C2
:10015000E859FF4F2491FC01EC55FF4F3491FC010D
:10016000E057FF4FE491EE23C9F0222339F023300A
:1001700001F1A8F4213019F1223029F1F0E0EE0F5D
:10018000FF1FE458FF4FA591B4918FB7F894EC91FD
:10019000611126C030953E233C938FBF08952730D0
:1001A000A9F02830C9F0243049F7809180008F7D74
:1001B00003C0809180008F7780938000DFCF84B56B
:1001C0008F7784BDDBCF84B58F7DFBCF8091B0006E
:1001D0008F778093B000D2CF8091B0008F7DF9CF20
:1001E0003E2BDACFAF92BF92CF92DF92EF92FF9287
:1001F0000F931F93CF93DF936C017B018B01040F4F
:10020000151FEB015E01AE18BF08C017D10759F0EA
:100210006991D601ED91FC910190F081E02DC6012C
:100220000995892B79F7C501DF91CF911F910F9126
:10023000FF90EF90DF90CF90BF90AF900895FC01BA
:10024000538D448D252F30E0842F90E0821B930B3B
:10025000541710F0CF96089501970895FC01918DE1
:10026000828D981761F0A28DAE0FBF2FB11D5D96E4
:100270008C91928D9F5F9F73928F90E008958FEF86
:100280009FEF0895FC01918D828D981731F0828D3A
:10029000E80FF11D858D90E008958FEF9FEF089591
:1002A000FC01918D228D892F90E0805C9F4F821BF5
:1002B00091098F739927089585E491E00E94500178
:1002C00021E0892B09F420E0822F089580E090E05E
:1002D000892B29F00E945C0181110C940000089583
:1002E000FC01A48DA80FB92FB11DA35ABF4F2C91AB
:1002F000848D90E001968F739927848FA689B789A2
:100300002C93A089B1898C91837080648C93938D98
:10031000848D981306C00288F389E02D80818F7D3B
:1003200080830895EF92FF920F931F93CF93DF93F3
:10033000EC0181E0888F9B8D8C8D98131AC0E88921
:10034000F989808185FF15C09FB7F894EE89FF89F0
:100350006083E889F98980818370806480839FBF8E
:1003600081E090E0DF91CF911F910F91FF90EF908E
:100370000895F62E0B8D10E00F5F1F4F0F7311279E
:10038000E02E8C8D8E110CC00FB607FCFACFE889D9
:10039000F989808185FFF5CFCE010E947001F1CFF0
:1003A000EB8DEC0FFD2FF11DE35AFF4FF0829FB74D
:1003B000F8940B8FEA89FB8980818062CFCF682F08
:1003C00085E491E00C949201CF93DF93EC01888D4A
:1003D0008823B9F0AA89BB89E889F9898C9185FDC0
:1003E00003C0808186FD0DC00FB607FCF7CF8C914E
:1003F00085FFF2CF808185FFEDCFCE010E94700195
:10040000E9CFDF91CF910895089590E080E00895BD
:10041000CF93DF93EC0160E08E810E94A60061E043
:100420008E810E94A60060E08E810E94A6008BE86B
:1004300091E00197F1F7DF91CF910895CF92DF928C
:10044000EF92FF920F931F93CF93DF936C017C0188
:1004500087E0E80EF11CD0E0C0E0062F10E0B80104
:100460000C2E02C0759567950A94E2F76170F7014A
:1004700081917F010E94A6002196C430D10579F7B1
:10048000C601DF91CF911F910F91FF90EF90DF9008
:10049000CF900C940802CF92DF92EF92FF920F93CD
:1004A0001F93CF93DF93EC01F62E642F8C810E9473
:1004B000A6008D818F3F19F060E00E94A6000F2DED
:1004C00010E08F8584FF25C06E0187E0C80ED11C27
:1004D000F12CE12CB8010E2C02C0759567950A9499
:1004E000E2F76170F60181916F010E94A600FFEFB3
:1004F000EF1AFF0A88E0E816F10461F7CE01DF91F8
:10050000CF911F910F91FF90EF90DF90CF900C94BF
:100510000802B80184E0759567958A95E1F7CE01E8
:100520000E941E026F2DCE01DF91CF911F910F917E
:10053000FF90EF90DF90CF900C941E0240E0682F68
:1005400082EE91E00C944B02CF93DF93823029F43A
:100550009091F10198609093F1018093F5011092D0
:10056000F60180E48093F70180E18093F80180E553
:100570008093F9018091E6010E9487008091E70154
:100580008F3F11F00E9487008091E8010E94870050
:10059000C2EED1E09E01225E31408091F10184FDE6
:1005A0000AC084E090E02196281739073CF48E8138
:1005B0000E948700EFCF88E090E0F5CF8BE39DE0CD
:1005C0000197F1F760E08091E6010E94A60060E0EB
:1005D0008091E8010E94A6008091E7018F3F19F009
:1005E00060E00E94A6008091F10184FD39C063E0C3
:1005F00082EE91E00E941E02CBE4D6E4CE01019788
:10060000F1F763E082EE91E00E941E022197F1F77C
:1006100063E082EE91E00E941E0283E592E0019782
:10062000F1F762E082EE91E00E941E028091F101FA
:1006300080620E949E0284E08093F2018CE00E941E
:100640009E0281E00E949E028BE39FE10197F1F7F9
:1006500082E08093F30186E0DF91CF910C949E02BB
:1006600080620E949E028BE496E40197F1F78091EC
:10067000F10180620E949E0283E592E00197F1F70A
:100680008091F10180620E949E02D0CF9091F5018D
:10069000691710F06FEF690FE62FF0E0EE51FE4F93
:1006A0009489890F80680C949E0241E00E944B025D
:1006B00081E090E008951F920F920FB60F921124DF
:1006C0002F933F938F939F93AF93BF93809141015B
:1006D00090914201A0914301B091440130914001B9
:1006E00023E0230F2D3758F50196A11DB11D20934E
:1006F00040018093410190934201A0934301B09344
:10070000440180913C0190913D01A0913E01B09146
:100710003F010196A11DB11D80933C0190933D01C5
:10072000A0933E01B0933F01BF91AF919F918F91F4
:100730003F912F910F900FBE0F901F90189526E8B4
:10074000230F0296A11DB11DD2CF1F920F920FB69B
:100750000F9211242F933F934F935F936F937F9347
:100760008F939F93AF93BF93EF93FF9385E491E0B3
:100770000E947001FF91EF91BF91AF919F918F9176
:100780007F916F915F914F913F912F910F900FBE8D
:100790000F901F9018951F920F920FB60F92112471
:1007A0002F938F939F93EF93FF93E0915501F091D7
:1007B00056018081E0915B01F0915C0182FD1BC0DC
:1007C000908180915E018F5F8F7320915F0182170E
:1007D00041F0E0915E01F0E0EB5BFE4F958F80937E
:1007E0005E01FF91EF919F918F912F910F900FBE1E
:1007F0000F901F9018958081F4CFE5E4F1E013820B
:10080000128288EE93E0A0E0B0E084839583A68313
:10081000B78382E291E09183808385EC90E09587B5
:10082000848784EC90E09787868780EC90E0918BBA
:10083000808B81EC90E0938B828B82EC90E0958BA7
:10084000848B86EC90E0978B868B118E128E138EA4
:10085000148EE2EEF1E01382128284E391E0918340
:1008600080838DE084838FEF85838CE0868385E0B1
:10087000878384E0808783E0818782E08287138694
:10088000148615861686178681E00C94A402CF93F1
:10089000DF93CDB7DEB76E970FB6F894DEBF0FBE0D
:1008A000CDBF789484B5826084BD84B5816084BDF9
:1008B00085B5826085BD85B5816085BD80916E00FE
:1008C000816080936E00109281008091810082602F
:1008D000809381008091810081608093810080916C
:1008E00080008160809380008091B100846080935B
:1008F000B1008091B00081608093B00080917A0057
:10090000846080937A0080917A00826080937A007C
:1009100080917A00816080937A0080917A0080686B
:1009200080937A001092C10082E00E94A402E091BC
:100930005501F091560182E08083E0915101F091E0
:1009400052011082E0915301F09154018FEC8083A9
:1009500010925D01E0915901F0915A0186E0808387
:10096000E0915701F0915801808180618083E0918E
:100970005701F0915801808188608083E091570190
:10098000F0915801808180688083E0915701F09157
:10099000580180818F7D808386E0582E3E0189E159
:1009A000680E711C5E01EAE0AE0EB11C7E01F8E13A
:1009B000EF0EF11C6E0189E0C80ED11C90E0892E6B
:1009C00090E0992E89E0E0E0F1E0DE0150960190A0
:1009D0000D928A95E1F7F301852D11928A95E9F739
:1009E00089E0EFE0F1E0DE01119601900D928A9529
:1009F000E1F7F501852D11928A95E9F760E080E035
:100A00000E9446038E01005F1F4FF80161918F0124
:100A100082EE91E00E945503E016F106B1F761E025
:100A200080E00E9446038E010F5F1F4FF801619125
:100A30008F0182EE91E00E945503C016D106B1F7F6
:100A400085E491E00E94500197FD5DC085E491E04E
:100A50000E942E018134B9F460E088E00E944603D0
:100A600061E482EE91E00E94550381E690E00E94ED
:100A7000DF0161E088E00E94460361E682EE91E0DA
:100A80000E945503DDCF823499F460E088E00E9433
:100A9000460362E482EE91E00E94550382E690E014
:100AA0000E94DF0161E088E00E94460362E6E6CF33
:100AB000833499F460E088E00E94460363E482EEA8
:100AC00091E00E94550383E690E00E94DF0161E01F
:100AD00088E00E94460363E6D1CF843409F0B0CFAA
:100AE00060E088E00E94460364E482EE91E00E94A8
:100AF000550384E690E00E94DF0161E088E00E94F7
:100B0000460364E6BBCF8114910409F45BCF0E94D5
:100B10005C01882309F456CF0E94000053CFEE0FEA
:100B2000FF1F0590F491E02D0994F894FFCF5258DF
:100B300020444154413A0000000000000054582075
:100B4000444154413A000000000000000000000051
:100B50009201F2001F01E40150012E014201000048
:0A0B600000005503F2000502040234
:107E0000112484B714BE81FFF0D085E080938100F7
:107E100082E08093C00088E18093C10086E0809377
:107E2000C20080E18093C4008EE0C9D0259A86E02C
:107E300020E33CEF91E0309385002093840096BBD3
:107E4000B09BFECF1D9AA8958150A9F7CC24DD24C4
:107E500088248394B5E0AB2EA1E19A2EF3E0BF2EE7
:107E6000A2D0813461F49FD0082FAFD0023811F036
:107E7000013811F484E001C083E08DD089C08234E0
:107E800011F484E103C0853419F485E0A6D080C0E4
:107E9000853579F488D0E82EFF2485D0082F10E0AE
:107EA000102F00270E291F29000F111F8ED06801E7
:107EB0006FC0863521F484E090D080E0DECF843638
:107EC00009F040C070D06FD0082F6DD080E0C81688
:107ED00080E7D80618F4F601B7BEE895C0E0D1E017
:107EE00062D089930C17E1F7F0E0CF16F0E7DF06D8
:107EF00018F0F601B7BEE89568D007B600FCFDCFD4
:107F0000A601A0E0B1E02C9130E011968C91119780
:107F100090E0982F8827822B932B1296FA010C0160
:107F200087BEE89511244E5F5F4FF1E0A038BF0790
:107F300051F7F601A7BEE89507B600FCFDCF97BE46
:107F4000E89526C08437B1F42ED02DD0F82E2BD052
:107F50003CD0F601EF2C8F010F5F1F4F84911BD097
:107F6000EA94F801C1F70894C11CD11CFA94CF0C13
:107F7000D11C0EC0853739F428D08EE10CD085E9AC
:107F80000AD08FE07ACF813511F488E018D01DD067
:107F900080E101D065CF982F8091C00085FFFCCF94
:107FA0009093C60008958091C00087FFFCCF809118
:107FB000C00084FD01C0A8958091C6000895E0E648
:107FC000F0E098E1908380830895EDDF803219F02E
:107FD00088E0F5DFFFCF84E1DECF1F93182FE3DFCA
:107FE0001150E9F7F2DF1F91089580E0E8DFEE27F6
:047FF000FF270994CA
:027FFE00040479
:00000001FF
