:060000000A128A11FC2F18
:100F5600F00070088312031393000800831603132E
:100F6600871294012030831203139400831603130F
:100F7600871108000A128A11B1270A128A110A304B
:100F86000A128A11AB270A128A110330F3008A303B
:100F9600F2005630F100F10BCE2FF20BCE2FF30BF1
:100FA600CE2FD52F0F300A128A11AB270A128A11BB
:100FB6000330F3008A30F2005630F100F10BE12FD6
:100FC600F20BE12FF30BE12FE82F15300A128A11ED
:100FD600AB270A128A110330F3008A30F20056302A
:100FE600F100F10BF42FF20BF42FF30BF42FFB2F80
:0A0FF600C22F83010A128A11BD2FD9
:02400E00393F38
:00000001FF
