:060000000A128A11ED2F27
:100B98000130F0020030031CF103F1027008710407
:100BA800031DD72DD82DCC2D08004D344134543495
:100BB80052344934583420344B3445345934503441
:100BC80041344434003400347E088A007F088200AF
:100BD8000A128A11E8250A128A118000840A040878
:100BE8007D0603190034FF0A0319FE0AEC2DF200F2
:100BF800831203130714720888008714FD30FF005E
:100C08007F0887056430F0000030F1000A128A116D
:100C1800CC250A128A110800F200FE30FF007F0876
:100C2800831203138705720888008714FD30FF00BC
:100C38007F0887056430F0000030F1000A128A113D
:100C4800CC250A128A1108000A128A1142260A12B1
:100C58008A110A128A11B1260A128A11F50075083A
:100C68000319372E382E2D2E75080A128A11FB25E6
:100C78000A128A112D2E0A128A11002807308316AB
:100C8800031386007F3081008312031386018316C5
:100C980003138701880130300A128A1110260A12BC
:100CA8008A116430F0000030F1000A128A11CC2554
:100CB8000A128A1130300A128A1110260A128A1171
:100CC8006430F0000030F1000A128A11CC250A12B3
:100CD8008A1130300A128A1110260A128A11383005
:100CE8000A128A1110260A128A110C300A128A1165
:100CF80010260A128A1100300A128A11FB250A12DC
:100D08008A1180300A128A1110260A128A11F301F8
:100D1800F4017308203E8400831300080A128A1124
:100D2800FB250A128A110130F3070318F40A003070
:100D3800F4077408803AFF0080307F02031DA62E56
:100D48000D307302031CA92EAA2E8D2EC0300A1254
:100D58008A1110260A128A110800831203138611B9
:100D68000616861606170A30F0000030F1000A123F
:100D78008A11CC250A128A11831203130618C52E6C
:100D8800C62ED72E6430F0000030F1000A128A1106
:100D9800CC250A128A1183120313061CD42ED52ED1
:100DA800CF2E3130EC2F8618DA2EDB2EEC2E643065
:100DB800F0000030F1000A128A11CC250A128A11BB
:100DC80083120313861CE92EEA2EE42E3230EC2F10
:100DD8000619EF2EF02E012F6430F0000030F100DC
:100DE8000A128A11CC250A128A1183120313061DCE
:100DF800FE2EFF2EF92E3330EC2F8615061286169E
:100E080006170A30F0000030F1000A128A11CC25CA
:100E18000A128A11831203130618132F142F252F71
:100E28006430F0000030F1000A128A11CC250A1251
:100E38008A1183120313061C222F232F1D2F3430EF
:100E4800EC2F8618282F292F3A2F6430F000003015
:100E5800F1000A128A11CC250A128A11831203138F
:100E6800861C372F382F322F3530EC2F06193D2F9F
:100E78003E2F4F2F6430F0000030F1000A128A1123
:100E8800CC250A128A1183120313061D4C2F4D2FED
:100E9800472F3630EC2F86150616861206170A30AD
:100EA800F0000030F1000A128A11CC250A128A11CA
:100EB800831203130618612F622F732F6430F0001A
:100EC8000030F1000A128A11CC250A128A11831205
:100ED8000313061C702F712F6B2F3730EC2F8618D9
:100EE800762F772F882F6430F0000030F1000A1237
:100EF8008A11CC250A128A1183120313861C852FA6
:100F0800862F802F3830EC2F06198B2F8C2F9D2F92
:100F18006430F0000030F1000A128A11CC250A1260
:100F28008A1183120313061D9A2F9B2F952F393090
:100F3800EC2F86150616861606130A30F0000030C8
:100F4800F1000A128A11CC250A128A11831203139E
:100F58000618AF2FB02FC12F6430F0000030F10019
:100F68000A128A11CC250A128A1183120313061C4D
:100F7800BE2FBF2FB92F2A30EC2F8618C42FC52FAC
:100F8800D62F6430F0000030F1000A128A11CC2507
:100F98000A128A1183120313861CD32FD42FCE2F43
:100FA8003030EC2F0619D92FDA2FEB2F6430F000F0
:100FB8000030F1000A128A11CC250A128A11831214
:100FC8000313061DE82FE92FE32F2330EC2F003001
:100FD800080083132F30FD000530FE00D930FF00D4
:100FE800203084000A128A11EC250A128A11F501B0
:080FF80083010A128A11282E60
:02400E003B3F36
:00000001FF
