:060000000A128A11EE2F26
:100F08003F3406345B344F3466346D34FD34073473
:100F1800FF3467347E088A007F0882000A128A112B
:100F28008E270A128A118000840A04087D06031994
:100F38000034FF0A0319FE0A922F203084002C3057
:100F4800F0000408F1000A30F200700884008313EE
:100F58000008F300F00A7108840073088000F10AA1
:100F6800F20BA92F8316031387018312031387013A
:100F780083120313AA01AB01831203132A08203E2C
:100F880084008313000887000830F2009D30F100C8
:100F98000530F000F00BCE2FF10BCE2FF20BCE2F39
:100FA800D52F013083120313AA070318AB0A0030A8
:100FB800AB072B08803AFF0080307F02031DE62F25
:100FC8000A302A02031CE92FEA2FC02FBC2F0A126D
:100FD8008A11002883133630FD000730FE00843064
:100FE800FF002C3084000A128A1192270A128A11F3
:080FF80083010A128A11A12FE6
:02400E003B3F36
:00000001FF
