:060000000A128A110C280F
:10000800FE00030EF2000A08F3000A128A112D28D6
:100018000A128A110F28F401F50183010A128A11C4
:1000280042288316031386018312031386012430A2
:1000380094001830831603138700203085000E3093
:10004800FF007F089F04141394138C150B178B174C
:100058000800831203138C1D322833283B28130809
:10006800F000F1017008F4007108F5008C117308B4
:100078008A00720E8300FE0E7E0E09000A128A1193
:1000880015200A128A110A128A1150200A128A119E
:1000980047280A128A110C28740883120313860051
:0200A80008004E
:02400E003B3F36
:00000001FF
