:060000000A128A11FC2F18
:100B9C000A128A11F5250A128A118316031391146D
:100BAC0008000A128A11F5250A128A1183160313FA
:100BBC00111408000A128A11F5250A128A118316DB
:100BCC000313111508008316031391160A128A11C8
:100BDC00F5250A128A1183160313111608008316C1
:100BEC0003131419FA2DFB2DF52D11081F39031DB4
:100BFC00002E012EF52D0800F0000A128A11F525A1
:100C0C000A128A1170088312031393008C1D0F2E85
:100C1C00102E0C2E8C11003083160313111B013077
:100C2C0008000A128A11F5250A128A118316031379
:100C3C00911583128C1D232E242E1F2E8C110A121B
:100C4C008A11F5250A128A1183120313130808005E
:100C5C00283083120313940083160313910183121B
:100C6C0003132008A4002108A5002208A6002308CD
:100C7C00A70002300310A40DA50DA60DA70DFF3E75
:100C8C00031D402E2708F3002608F2002508F1006A
:100C9C002408F0000030F7005B30F6008D30F500D2
:100CAC008030F4000A128A11F3260A128A11700895
:100CBC00FF3E83160313930094011830FF007F0846
:100CCC00870408000A128A11D7250A128A11732E7A
:100CDC000A128A11CE250A128A11A0300A128A1120
:100CEC0002260A128A11003A031D7D2E7E2E6E2ECC
:100CFC0072080A128A1102260A128A11003A031D7E
:100D0C00882E892E7E2E71080A128A1102260A124A
:100D1C008A11003A031D932E942E892E73080A1201
:100D2C008A1102260A128A11003A031D9E2E9F2E4A
:100D3C00942E0A128A11E0250A128A1108000A124E
:100D4C008A11D7250A128A11B02E0A128A11CE25C1
:100D5C000A128A11A0300A128A1102260A128A116A
:100D6C00003A031DBA2EBB2EAB2E72080A128A1142
:100D7C0002260A128A11003A031DC52EC62EBB2E5E
:100D8C0071080A128A1102260A128A11003A031DEE
:100D9C00D02ED12EC62E0A128A11CE250A128A11F5
:100DAC00A1300A128A1102260A128A11003A031D76
:100DBC00E02EE12ED62E0A128A1117260A128A115B
:100DCC00F3000A128A11E9250A128A110A128A11F1
:100DDC00E0250A128A11730808000030FC0000306C
:100DEC00FB000030FA000030F90073087204710443
:100DFC0070040319022F032F502FFD01FD0A132F2E
:100E0C000130F8000310F00DF10DF20DF30DF80B9D
:100E1C00082F0130FF007F08FD07F31F162F172F37
:100E2C00062F0130F8000310F90DFA0DFB0DFC0D27
:100E3C00F80B192F73087702031D2E2F72087602F8
:100E4C00031D2E2F71087502031D2E2F70087402BE
:100E5C00031C312F322F412F7008F4027108031C30
:100E6C00710FF5027208031C720FF6027308031C53
:100E7C00730FF702791401300310F30CF20CF10C20
:100E8C00F00CFF3E031D422F0130FD02031D4F2FBE
:100E9C00502F172F7C08F3007B08F2007A08F10022
:100EAC007908F0000800003083120313A30001300E
:100EBC00A2008630A100A030A0000A128A112E26B2
:100ECC000A128A112330F1000030F2004130F30095
:100EDC000A128A1168260A128A111430831203131B
:100EEC00A9007930A800A80B792FA90B792F2830ED
:100EFC00F1000030F2004230F3000A128A11682629
:100F0C000A128A11143083120313A9007930A80035
:100F1C00A80B8E2FA90B8E2F3630F1000030F2006B
:100F2C004330F3000A128A1168260A128A1114300F
:100F3C0083120313A9007930A800A80BA32FA90BC7
:100F4C00A32F8316031388012330F1000030F20025
:100F5C000A128A11A5260A128A1183120313880019
:100F6C00083083120313AA009D30A9000530A80095
:100F7C00A80BBE2FA90BBE2FAA0BBE2F2830F10039
:100F8C000030F2000A128A11A5260A128A11831265
:100F9C0003138800083083120313AA009D30A900A4
:100FAC000530A800A80BD82FA90BD82FAA0BD82F27
:100FBC003630F1000030F2000A128A11A5260A120E
:100FCC008A11831203138800083083120313AA00BA
:100FDC009D30A9000530A800A80BF22FA90BF22F09
:100FEC00AA0BF22FF82F0A128A11002883010A1279
:040FFC008A11592FCE
:02400E003B3F36
:00000001FF
