:060000000A128A11DE2F36
:1005B80064008001840A0406031900340406DD2A55
:1005C8000130F0020030031CF103F10270087104DD
:1005D800031DEF2AF02AE42A08007E088A007F0813
:1005E80082000A128A11F1220A128A118000840AF2
:1005F80004087D0603190034FF0A0319FE0AF52AC8
:100608004334483441344E344E3445344C34203429
:1006180031343A344334483441344E344E3445341A
:100628004C34203430343A34F200831203138715E3
:10063800720888000714FE30FF007F0887056430C1
:10064800F0000030F1000A128A11E4220A128A111D
:100658000800F200F730FF007F08831203138705B4
:10066800720888000714FE30FF007F088705643091
:10067800F0000030F1000A128A11E4220A128A11ED
:1006880008000030FC000030FB000030FA000030A9
:10069800F900701C502B512B682B7408F90775084A
:1006A80003110318013E03195A2BFA0776080311A0
:1006B8000318013E0319612BFB0777080311031880
:1006C800013E0319682BFC070130F8000310F40DF4
:1006D800F50DF60DF70DF80B6A2B01300310F30C2E
:1006E800F20CF10CF00CFF3E031D722B7308720420
:1006F80071047004031D812B822B4D2B7C08F300A1
:100708007B08F2007A08F1007908F000080005304B
:100718008316031385008701880181308312031330
:100728009F008230831603139F003C30831203130B
:1007380097002E309500063092005E308316031322
:10074800920030300A128A112D230A128A1164305D
:10075800F0000030F1000A128A11E4220A128A110C
:1007680030300A128A112D230A128A116430F000DF
:100778000030F1000A128A11E4220A128A1130307C
:100788000A128A112D230A128A1138300A128A1184
:100798002D230A128A110C300A128A112D230A12EB
:1007A8008A11080073087204710470040319DD2BA0
:1007B800DE2B212CF901F90AEE2B0130F800031089
:1007C800F00DF10DF20DF30DF80BE32B0130FF00E6
:1007D8007F08F907F31FF12BF22BE12B730877023F
:1007E800031D002C72087602031D002C7108750287
:1007F800031D002C70087402031C032C042C122CFB
:100808007008F4027108031C710FF5027208031CCA
:10081800720FF6027308031C730FF70201300310FE
:10082800F30CF20CF10CF00CFF3E031D132C0130FD
:10083800F902031D202C212CF22B7708F3007608EF
:10084800F2007508F1007408F00008000030831207
:100858000313C9000030C8000030C7000030C600CC
:10086800410840043F043E0403193B2C3C2C892CCE
:10087800CA01CA0A4C2C0130FD000310BE0DBF0D81
:10088800C00DC10DFD0B412C0130FF007F08CA07C8
:10089800C11F4F2C502C3F2C0130FD000310C60DFA
:1008A800C70DC80DC90DFD0B522C41084502031D8B
:1008B800672C40084402031D672C3F084302031DB0
:1008C800672C3E084202031C6A2C6B2C7A2C3E08CB
:1008D800C2023F08031C3F0FC3024008031C400F1D
:1008E800C4024108031C410FC5024614013003101D
:1008F800C10CC00CBF0CBE0CFF3E031D7B2C01308D
:10090800CA02031D882C892C502C4908C1004808AC
:10091800C0004708BF004608BE0008000030F300CA
:100928000030F2000030F1000A30F00083120313A7
:100938004E08F7004D08F6004C08F5004B08F40087
:100948000A128A11D6230A128A1170088312031315
:10095800AF000030C1000030C0000030BF000A30D6
:10096800BE004E08C5004D08C4004C08C3004B0823
:10097800C2000A128A112A240A128A118312031346
:100988004108CE004008CD003F08CC003E08CB000F
:100998000030F3000030F2000030F1000A30F000BF
:1009A8004E08F7004D08F6004C08F5004B08F40017
:1009B8000A128A11D6230A128A11700883120313A5
:1009C800AE000030C1000030C0000030BF000A3067
:1009D800BE004E08C5004D08C4004C08C3004B08B3
:1009E800C2000A128A112A240A128A1183120313D6
:1009F8004108CE004008CD003F08CC003E08CB009F
:100A08000030F3000030F2000030F1000A30F0004E
:100A18004E08F7004D08F6004C08F5004B08F400A6
:100A28000A128A11D6230A128A1170088312031334
:100A3800AD000030C1000030C0000030BF000A30F7
:100A4800BE004E08C5004D08C4004C08C3004B0842
:100A5800C2000A128A112A240A128A118312031365
:100A68004108CE004008CD003F08CC003E08CB002E
:100A78004B08AC002C08031D422D432D532D20306C
:100A8800AC002D08031D492D4A2D532D2030AD00F3
:100A98002E08031D502D512D532D2030AE00080077
:100AA8000030F3000030F2000030F1000A30F000AE
:100AB800831203134E08F7004D08F6004C08F500A2
:100AC8004B08F4000A128A11D6230A128A117008F8
:100AD80083120313AB000030C1000030C0000030A7
:100AE800BF000A30BE004E08C5004D08C4004C08BF
:100AF800C3004B08C2000A128A112A240A128A115A
:100B0800831203134108CE004008CD003F08CC00F3
:100B18003E08CB000030F3000030F2000030F10056
:100B28000A30F0004E08F7004D08F6004C08F500B2
:100B38004B08F4000A128A11D6230A128A11700887
:100B480083120313AA000030C1000030C000003037
:100B5800BF000A30BE004E08C5004D08C4004C084E
:100B6800C3004B08C2000A128A112A240A128A11E9
:100B7800831203134108CE004008CD003F08CC0083
:100B88003E08CB000030F3000030F2000030F100E6
:100B98000A30F0004E08F7004D08F6004C08F50042
:100BA8004B08F4000A128A11D6230A128A11700817
:100BB80083120313A9000030C1000030C0000030C8
:100BC800BF000A30BE004E08C5004D08C4004C08DE
:100BD800C3004B08C2000A128A112A240A128A1179
:100BE800831203134108CE004008CD003F08CC0013
:100BF8003E08CB004B08A8002808031D042E052E2C
:100C0800152E2030A8002908031D0B2E0C2E152E9A
:100C18002030A9002A08031D122E132E152E20306D
:100C2800AA0008000A128A118B230A128A11C730F7
:100C3800FF007F08831203139F051F151F19252E18
:100C4800262E222E831603131E0883120313CF00A9
:100C5800D0014F08BA005008BB001E08CF00D001D1
:100C68004F08B8005008B9003A08CF003B08D00038
:100C7800D101D2013808D3003908D400D501D601F2
:100C880008300310D30DD40DD50DD60DFF3E031D2E
:100C9800452E5308CF0754080318540F542E552EC9
:100CA800D00755080318550F5A2E5B2ED107560842
:100CB8000318560AD2075208A7005108A600500880
:100CC800A5004F08A40080300A128A112D230A12A9
:100CD8008A1183120313B201B3013208613E840002
:100CE800831300080A128A1118230A128A11013084
:100CF80083120313B2070318B30A0030B3070A308C
:100D080032063304031D892E8A2E712E2708CE0041
:100D18002608CD002508CC002408CB000A128A1129
:100D280092240A128A1183120313B201B301320802
:100D38002C3E8400203083130006031DA42EA52E0C
:100D4800AF2E32082C3E840000080A128A1118239C
:100D58000A128A11B92E32082C3E84000008303E4F
:100D68000A128A1118230A128A11013083120313F6
:100D7800B2070318B30A0030B3070430320633044D
:100D8800031DC72EC82E9B2EE830F0000330F1005B
:100D98000A128A11E4220A128A11831203131F16F7
:100DA8001F151F19D82ED92ED52E831603131E08EA
:100DB80083120313CF00D0014F08BA005008BB00BC
:100DC8001E08CF00D0014F08B8005008B9003A08F3
:100DD800CF003B08D000D101D2013808D300390830
:100DE800D400D501D60108300310D30DD40DD50D8C
:100DF800D60DFF3E031DF82E5308CF0754080318DD
:100E0800540F072F082FD00755080318550F0D2F1B
:100E18000E2FD10756080318560AD2075208A70002
:100E28005108A6005008A5004F08A400C0300A12B7
:100E38008A112D230A128A1183120313B201B301F6
:100E48003208573E8400831300080A128A111823B7
:100E58000A128A11013083120313B2070318B30A66
:100E68000030B3070A3032063304031D3C2F3D2FF0
:100E7800242F0030C1000030C0000330BF00FF3015
:100E8800BE002708F3002608F2002508F100240810
:100E9800F0000030F7000030F6000130F500513066
:100EA800F4000A128A1145230A128A117308831260
:100EB8000313C5007208C4007108C3007008C2009B
:100EC8000A128A112A240A128A118312031341086A
:100ED800A3004008A2003F08A1003E08A000230884
:100EE800CE002208CD002108CC002008CB000A1231
:100EF8008A1154250A128A11831203132008CF007D
:100F08002108D0002208D1002308D20002300310A3
:100F1800D20CD10CD00CCF0CFF3E031D8B2F4F08E9
:100F2800950020083039CF0004300310CF0DFF3E64
:100F3800031D992F17080C394F079700B201B30109
:100F48003208283E8400203083130006031DAD2F8D
:100F5800AE2FB82F3208283E840000080A128A11E2
:100F680018230A128A11C22F3208283E840000086A
:100F7800303E0A128A1118230A128A11013083128C
:100F88000313B2070318B30A0030B307043032065C
:100F98003304031DD02FD12FA42FE830F0000330E5
:100FA800F1000A128A11E4220A128A111B2E0A126F
:100FB8008A11002883136B30FD000330FE000430D3
:100FC800FF00573084000A128A11F5220A128A118A
:100FD800A0308400AA300A128A11DC220A128A116F
:100FE800203084003E300A128A11DC220A128A114B
:080FF80083010A128A11162E72
:02400E003B3F36
:00000001FF
